:020000040800F2
:100000000000022025130008AD120008AF120008FE
:10001000B1120008B3120008B51200080000000079
:10002000000000000000000000000000B7120008FF
:10003000B912000800000000BB120008BD12000841
:100040007513000875130008751300087513000870
:100050007513000875130008751300087513000860
:100060007513000875130008751300087513000850
:100070007513000875130008751300087513000840
:1000800075130008751300087513000800000000C0
:1000900000000000000000000000000075130008D0
:1000A0007513000875130008751300087513000810
:1000B0007513000875130008751300087513000800
:1000C00075130008751300087513000875130008F0
:1000D0007513000875130008751300080000000070
:1000E0007513000875130008751300080000000060
:1000F0000000000000000000000000007513000870
:10010000000000007513000875130008751300083F
:1001100000000000000000000000000000000000DF
:10012000C91200087513000875130008751300083C
:10013000751300080000000000000000000000002F
:10014000000000000000000000000000751300081F
:10015000751300087513000875130008751300085F
:10016000751300087513000800000000000000006F
:10017000000000000000000000000000000000007F
:1001800000000000751300080000000000000000DF
:08019000751300087513000847
:1001980010B5054C237833B9044B13B10448AFF3B9
:1001A80000800123237010BD100000200000000013
:1001B800C013000808B5034B1BB103490348AFF34C
:1001C800008008BD0000000014000020C0130008D3
:1001D80053B94AB9002908BF00281CBF4FF0FF31A6
:1001E8004FF0FF3000F072B9ADF1080C6DE904CEA4
:1001F80000F006F8DDF804E0DDE9022304B07047FA
:100208002DE9F047089E04468846002B4BD18A42C8
:10021800154667D9B2FA82F24AB1C2F1200701FA4B
:1002280002F320FA07F7954047EA030894404FEA9B
:10023800154E230CB8FBFEF71FFA85FC0EFB17883A
:1002480043EA084307FB0CF1994209D9EB1807F177
:10025800FF3080F01B81994240F21881023F2B4405
:100268005B1AA4B2B3FBFEF00EFB103344EA03445E
:1002780000FB0CFCA44509D92C1900F1FF3380F0D0
:100288000781A44540F2048102382C4440EA074023
:10029800A4EB0C0400271EB1D4400023C6E9004398
:1002A8003946BDE8F0878B4209D9002E00F0EB8073
:1002B8000027C6E9000138463946BDE8F087B3FA99
:1002C80083F7002F47D18B4202D3824200F2FA8093
:1002D800841A61EB030301209846002EE0D0C6E99A
:1002E8000048DDE702B9FFDEB2FA82F2002A40F0E8
:1002F8008F80491B4FEA154E1FFA85F80127B1FB7D
:10030800FEFC230C0EFB1C1143EA014308FB0CF115
:10031800994207D9EB180CF1FF3002D2994200F24A
:10032800CD808446591AA3B2B1FBFEF00EFB10141F
:1003380043EA044408FB00F8A04507D92C1900F14A
:10034800FF3302D2A04500F2B6801846A4EB080499
:1003580040EA0C409FE7C7F1200CBB4022FA0CFE94
:100368004EEA030E01FA07F420FA0CF521FA0CF311
:100378004FEA1E482543B3FBF8F92C0C08FB193348
:100388001FFA8EFA44EA034309FB0AF49C4202FA74
:1003980007F200FA07F10BD91EEB030309F1FF304E
:1003A80080F087809C4240F28480A9F1020973445E
:1003B8001B1BADB2B3FBF8F008FB103345EA03444E
:1003C80000FB0AFAA24508D91EEB040400F1FF332A
:1003D8006BD2A24569D90238744440EA0940A0FBAF
:1003E8000289A4EB0A044C45C2464B4654D351D06B
:1003F800002E69D0B1EB0A0564EB030404FA0CFC87
:10040800FD40FC404CEA0505C6E90054002747E7D3
:10041800C2F1200320FA03F7954001FA02F021FA0D
:1004280003F34FEA154E3843010CB3FBFEF71FFAEE
:1004380085F80EFB173341EA034107FB08F38B42AB
:1004480004FA02F407D9691807F1FF3C2FD28B424E
:100458002DD9023F2944CB1A81B2B3FBFEF00EFB23
:10046800103341EA034100FB08F38B4207D96918AE
:1004780000F1FF3C17D28B4215D902382944C91A1A
:1004880040EA07473BE73746304609E70746E7E6CD
:100498001846FBE64145ABD2B8EB020A69EB0E02FF
:1004A80001381346A4E76046E9E7184695E767462A
:1004B800D1E781467CE702382C4447E7ACF1020CCF
:1004C8002B442FE7384608E73746E9E6704700BF70
:1004D80010B504460E4B18784FF47A73B3FBF0F35B
:1004E8000C4A1068B0FBF3F000F094F868B90F2CD0
:1004F80001D901200AE0002221464FF0FF3000F028
:1005080049F8034B5C60002000E0012010BD00BFEB
:10051800000000200C00002008B50B4B1A6842F4BC
:1005280000721A601A6842F480621A601A6842F40B
:1005380080721A60032000F01BF80020FFF7C8FF44
:1005480000F066FE002008BD003C0240034A116826
:10055800034B1B780B441360704700BF2C0000202E
:1005680000000020014B1868704700BF2C000020D5
:10057800074AD36823F4E0631B041B0C000200F451
:10058800E060184340F0BF6040F40030D06070472E
:1005980000ED00E030B4174BDB68C3F30223C3F16E
:1005A8000704042C28BF04241D1D062D18D9033B5D
:1005B8004FF0FF3505FA04F421EA0401994005FAE1
:1005C80003F322EA0303194300280BDB0901C9B22C
:1005D80000F1604000F5614080F8001330BC7047BE
:1005E8000023E5E700F00F000901C9B2024B1954D6
:1005F800F4E700BF00ED00E014ED00E000F01F029A
:10060800400901239340024A42F82030704700BF56
:1006180000E100E00138B0F1807F0AD2064B586053
:10062800064AF02182F823100020986007221A60F9
:1006380070470120704700BF10E000E000ED00E0C7
:10064800042805D0054A136823F004031360704793
:10065800024A136843F004031360704710E000E097
:10066800704708B5FFF7FCFF08BD30B405682C6873
:1006780024F480242C60046863608368402B05D0D0
:10068800036899600368DA6030BC704703689A6051
:100698000368D960F8E700000268D3B2103B0B4941
:1006A800A1FB03131B090A49C95CC165032B06D8C2
:1006B80022F47F7222F003028265806D704722F473
:1006C8007F7222F0030204328265F6E7ABAAAAAA77
:1006D800D8130008836A826992B9012B0AD01BB12A
:1006E800022B01D000207047C36A13F0807F2CD101
:1006F80000207047C36AB3F1C07F28D0002070473C
:10070800B2F5005F05D0022B29D9032B15D00020A4
:100718007047032B03D8DFE803F01C041C0A0020F1
:100728007047C36A13F0807F15D100207047C36AF1
:10073800B3F1C07F11D000207047C36A13F0807FE7
:1007480001D0012070470020704701207047012028
:100758007047012070470120704701207047012031
:100768007047000070B50446FFF7FCFE002C5BD014
:100778000546002384F83430022384F83530226893
:10078800136823F00103136023681A6812F0010F3D
:100798000AD0FFF7E7FE401B0528F5D9202363653B
:1007A800032084F8350070BD1A682048104061683D
:1007B800A2680A43E1680A4321690A4361690A4356
:1007C800A1690A43E1690A43216A0A430243616A4B
:1007D80004291ED01A602668756925F00705636A22
:1007E8001D43042B07D1A36A1D43E36A1BB12046AE
:1007F800FFF770FF90B975612046FFF74DFFE26D76
:100808003F239340836000206065012384F83530DE
:10081800C9E7E16A206B01430A43DBE740236365CC
:10082800012084F83500BEE70120BCE73F8010F0C6
:1008380038B5856D90F83440012C31D0012480F80A
:10084800344090F83540E4B2012C04D0002380F8FD
:100858003430022038BD0446022084F835000020D8
:1008680060652046FFF701FFE26D3F239340AB60D0
:100878002268136843F0160313602268536943F033
:1008880080035361236C23B12268136843F0080383
:1008980013602268136843F0010313600020D9E74E
:1008A8000220D7E7F0B583B0044600230193724BCA
:1008B8001D68724BA3FB0535AD0A876D3E68C26D96
:1008C80008239340334210D003681A6812F0040FCB
:1008D8000BD01A6822F004021A60C26D08239340F4
:1008E800BB60436D43F001034365E26D0123934010
:1008F800334209D02268526912F0800F04D0BB60DD
:10090800636D43F002036365E26D04239340334251
:1009180009D02268126812F0020F04D0BB60636D20
:1009280043F004036365E26D10239340334224D0FF
:100938002268126812F0080F1FD0BB6023681A687B
:1009480012F4802F0DD01B6813F4002F04D1236CF0
:100958009BB12046984710E0A36C73B12046984796
:100968000BE01A6812F4807F03D11A6822F008029B
:100978001A60236C0BB120469847E26D2023934000
:10098800334255D02268126812F0100F50D0BB6065
:1009980094F83530DBB2052B0ED023681A6812F4B0
:1009A800802F33D01B6813F4002F2AD1636C002BDF
:1009B8003ED0204698473BE02268136823F0160390
:1009C80013602268536923F080035361236CA3B139
:1009D8002268136823F008031360E26D3F239340F5
:1009E800BB60002384F83430012384F83530236D4C
:1009F800002B3FD0204698473CE0A36C002BE7D162
:100A0800EBE7E36BA3B12046984711E01A6812F4AC
:100A1800807F09D11A6822F010021A60002384F836
:100A28003430012384F83530E36B0BB12046984706
:100A3800636DFBB1636D13F0010F17D0052384F8C4
:100A480035302268136823F001031360019B0133DA
:100A58000193AB4204D823681B6813F0010FF5D14A
:100A6800002384F83430012384F83530E36C0BB16B
:100A78002046984703B0F0BD0C000020B5814E1BFE
:100A8800034690F83400012827D0012083F8340069
:100A980093F83500C0B2012804D00120002283F861
:100AA80034207047052916D8DFE801F00306090C41
:100AB8000F12DA630020F1E71A640020EEE75A64A7
:100AC8000020EBE79A640020E8E7DA640020E5E715
:100AD8001A650020E2E70020E0E7022070470000E6
:100AE800002800F0BB8170B582B00446036813F09B
:100AF800010F3BD0A74B9B6803F00C03042B2CD0B1
:100B0800A44B9B6803F00C03082B21D06368B3F552
:100B1800803F4FD0B3F5A02F52D09E4B1A6822F4D5
:100B280080321A601A6822F480221A606368002BE7
:100B380050D0FFF717FD0546964B1B6813F4003F8E
:100B480014D1FFF70FFD401B6428F5D903208AE173
:100B5800904B5B6813F4800FD8D08E4B1B6813F44E
:100B6800003F03D06368002B00F07A81236813F0FC
:100B7800020F55D0874B9B6813F00C0F3ED0854B66
:100B88009B6803F00C03082B33D0E368002B68D074
:100B9800814B01221A60FFF7E5FC05467D4B1B6877
:100BA80013F0020F54D1FFF7DDFC401B0228F5D9E2
:100BB800032058E1774A136843F480331360B5E79C
:100BC800744B1A6842F480221A601A6842F4803220
:100BD8001A60ABE7FFF7C6FC05466E4B1B6813F4BB
:100BE800003FC3D0FFF7BEFC401B6428F5D90320A3
:100BF80039E1684B5B6813F4800FC6D1654B1B68FD
:100C080013F0020F04D0E368012B01D001202AE180
:100C1800604A136823F0F803216943EAC1031360AB
:100C2800236813F0080F40D0636963B35B4B01225C
:100C38001A60FFF797FC0546564B5B6F13F0020FDF
:100C480033D1FFF78FFC401B0228F5D903200AE1B6
:100C5800504A136823F0F803216943EAC10313607B
:100C6800DEE74D4B00221A60FFF77CFC0546494B36
:100C78001B6813F0020FD3D0FFF774FC401B022847
:100C8800F5D90320EFE0454B00221A60FFF76AFC14
:100C98000546404B5B6F13F0020F06D0FFF762FC6E
:100CA800401B0228F5D90320DDE0236813F0040F68
:100CB80079D0384B1B6C13F0805F33D1002301933C
:100CC800344B1A6C42F080521A641B6C03F0805348
:100CD8000193019B0125324B1B6813F4807F23D0BD
:100CE800A368012B34D0052B38D02A4B1A6F22F079
:100CF80001021A671A6F22F004021A67A368002B10
:100D080036D0FFF72FFC0646224B1B6F13F0020F5D
:100D180048D1FFF727FC801B41F288339842F3D96A
:100D28000320A0E00025D6E71D4A136843F480732A
:100D38001360FFF717FC0646194B1B6813F4807FF6
:100D4800CED1FFF70FFC801B0228F5D903208AE0DB
:100D5800104A136F43F001031367CFE70D4B1A6F67
:100D680042F004021A671A6F42F001021A67C5E7D7
:100D7800FFF7F8FB0646074B1B6F13F0020F11D065
:100D8800FFF7F0FB801B41F288339842F3D9032028
:100D980069E000BF0038024000004742800E474229
:100DA80000700040E5B9A369002B5BD0304A926817
:100DB80002F00C02082A58D0022B17D02D4B002223
:100DC8001A60FFF7CFFB0446294B1B6813F0007F1E
:100DD80042D0FFF7C7FB001B0228F5D9032042E0E9
:100DE800234A136C23F080531364DCE7214B002261
:100DF8001A60FFF7B7FB05461D4B1B6813F0007F11
:100E080006D0FFF7AFFB401B0228F5D903202AE0E4
:100E1800E369226A1343626A43EA8213A26A5208A8
:100E2800013A43EA0243E26A43EA0263104A536022
:100E3800104B01221A60FFF795FB04460C4B1B6808
:100E480013F0007F06D1FFF78DFB001B0228F5D9B0
:100E5800032008E0002006E0002004E0012070479D
:100E6800012000E0002002B070BD0120FBE700BFB8
:100E78000038024060004742264B9B6803F00C0391
:100E8800042B44D0082B01D0234870472DE9F04BA0
:100E9800204B5A6802F03F025B6813F4800F13D0AE
:100EA8001C4B5968C1F3881100231C48A1FB0001A1
:100EB800FFF78EF9174B5B68C3F3014301335B00FF
:100EC800B0FBF3F0BDE8F08B124B5B68C3F38813FB
:100ED8001E4600275C010025E41A65EB0705A901F9
:100EE80041EA9461A001001B61EB0501CB0043EAD4
:100EF8005073C400A01943EB07018B0243EA9053D7
:100F08008402204619460023FFF762F9D2E7034816
:100F1800704700BF003802400024F40040787D018B
:100F2800002800F09D8070B504464F4B1B6803F005
:100F38000F038B4209D2CBB24B4A1370136803F0EC
:100F48000F038B4201D0012070BD236813F0020FFC
:100F580017D013F0040F04D0444A936843F4E053C5
:100F68009360236813F0080F04D0404A936843F451
:100F7800604393603D4A936823F0F003A0680343FD
:100F880093600D46236813F0010F32D06368012B7C
:100F980021D09A1E012A25D9344A126812F0020F6C
:100FA80060D032498A6822F0030213438B60FFF74E
:100FB800D9FA06462D4B9B6803F00C036268B3EB25
:100FC800820F16D0FFF7CEFA801B41F28833984281
:100FD800F0D90320B8E7254A126812F4003FE0D19F
:100FE8000120B1E7214A126812F0007FD9D101200F
:100FF800AAE71D4B1B6803F00F03AB4209D9EAB2FD
:10100800194B1A701B6803F00F03AB4201D0012083
:101018009AE7236813F0040F06D0144A936823F460
:10102800E053E1680B439360236813F0080F07D07F
:101038000E4A936823F46043216943EAC10393602D
:10104800FFF71AFF094B9B68C3F30313084AD35CE5
:10105800D840084B18600020FFF73AFA002073E7E1
:101068000120704701206FE7003C02400038024031
:10107800E01300080C000020014B1868704700BFFF
:101088000C0000207047FEE700B583B000230193F1
:10109800164A116B41F480011163126B02F480024D
:1010A8000192019A1248134A0260436080228260CA
:1010B800C360036143618361C361036204224262C6
:1010C80003228262C3620363FFF74CFB50B900221C
:1010D80011463820FFF75EFA3820FFF78FFA03B081
:1010E8005DF804FBD5210448FFF7CDFF0038024026
:1010F8003000002010640240F813000800B595B0D5
:1011080000230193234A116C41F080511164126C41
:1011180002F080520192019A02931F4A116841F429
:1011280040411160126802F440420292029A02227F
:10113800089201220B9210220C920E9308A8FFF736
:10114800CFFCF0B90F230393002104910591069178
:10115800079103A8FFF7E4FEB8B9FFF78DFF0F4B1F
:10116800A3FB00308009FFF755FA0420FFF768FA5F
:10117800002211464FF0FF30FFF70CFA15B05DF86A
:1011880004FB9E210648FFF77EFFAC210448FFF7C9
:101198007AFF00BF0038024000700040D34D621053
:1011A800F813000838B5FFF7B7F9FFF7A7FFFFF7FF
:1011B8006BFF124A00211248FFF762FC0123114A13
:1011C80011490F48FFF734FBFFF7CCF9054605F541
:1011D800C874FFF7C7F98442F9D20123094A0B49B9
:1011E8000748FFF725FBFFF7BDF9054605F5C87465
:1011F800FFF7B8F98442F9D2E0E700BF8D10000884
:1012080030000020140802400800002009000020D7
:1012180010B582B000240094214B5A6C42F48042ED
:101228005A645A6C02F480420092009A01941A6C33
:1012380042F080521A641B6C03F080530193019BA7
:101248000320FFF795F9224621466FF00B00FFF7C0
:10125800A1F9224621466FF00A00FFF79BF92246C2
:1012680021466FF00900FFF795F9224621466FF0F5
:101278000400FFF78FF9224621466FF00300FFF7BD
:1012880089F9224621466FF00100FFF783F92246CB
:1012980021464FF0FF30FFF77DF902B010BD00BFC7
:1012A800003802407047FEE7FEE7FEE7FEE77047BA
:1012B8007047704708B5FFF749F9FFF7D2F908BD3D
:1012C80008B50248FFF7EEFA08BD00BF300000205D
:1012D8000F49D1F8883043F47003C1F888300D4BBA
:1012E8001A6842F001021A60002098601A6822F019
:1012F800847222F480321A60074A5A601A6822F40B
:1013080080221A60D8604FF000638B60704700BF7E
:1013180000ED00E00038024010300024DFF834D03F
:10132800002103E00C4B5B58435004310B480C4B35
:1013380042189A42F6D30B4A02E0002342F8043BD3
:10134800094B9A42F9D3FFF7C3FF00F011F8FFF7F2
:1013580029FF704700000220181400080000002030
:10136800100000201000002090000020FEE7000080
:1013780070B50D4E0D4CA41BA4100025A54209D133
:101388000B4E0C4C00F018F8A41BA4100025A54225
:1013980005D170BD56F8253098470135EEE756F867
:1013A800253098470135F2E710140008101400089A
:1013B8001014000814140008F8B500BFF8BC08BCE5
:1013C8009E467047F8B500BFF8BC08BC9E467047FB
:1013D80000061016000610160000000000000000AD
:1013E80001020304060708090000000001020304C3
:1013F8002E2E2F5372632F6D61696E2E63000000CD
:0814080000EEFF7F010000006F
:04141000BD01000812
:041414009901000832
:101418000100000010000000FF0000000024F4009C
:0400000508001325B7
:00000001FF
